{
  "contractName": "MockCollateralizedTermsContract",
  "abi": [
    {
      "constant": true,
      "inputs": [],
      "name": "debtKernelAddress",
      "outputs": [
        {
          "name": "",
          "type": "address"
        }
      ],
      "payable": false,
      "stateMutability": "view",
      "type": "function"
    },
    {
      "constant": true,
      "inputs": [
        {
          "name": "agreementId",
          "type": "bytes32"
        }
      ],
      "name": "getValueRepaidToDate",
      "outputs": [
        {
          "name": "",
          "type": "uint256"
        }
      ],
      "payable": false,
      "stateMutability": "view",
      "type": "function"
    },
    {
      "constant": false,
      "inputs": [
        {
          "name": "agreementId",
          "type": "bytes32"
        },
        {
          "name": "amount",
          "type": "uint256"
        }
      ],
      "name": "mockDummyValueRepaid",
      "outputs": [],
      "payable": false,
      "stateMutability": "nonpayable",
      "type": "function"
    },
    {
      "constant": true,
      "inputs": [
        {
          "name": "agreementId",
          "type": "bytes32"
        }
      ],
      "name": "getTermEndTimestamp",
      "outputs": [
        {
          "name": "",
          "type": "uint256"
        }
      ],
      "payable": false,
      "stateMutability": "view",
      "type": "function"
    },
    {
      "constant": true,
      "inputs": [],
      "name": "debtRegistry",
      "outputs": [
        {
          "name": "",
          "type": "address"
        }
      ],
      "payable": false,
      "stateMutability": "view",
      "type": "function"
    },
    {
      "constant": false,
      "inputs": [
        {
          "name": "agreementId",
          "type": "bytes32"
        }
      ],
      "name": "returnCollateral",
      "outputs": [],
      "payable": false,
      "stateMutability": "nonpayable",
      "type": "function"
    },
    {
      "constant": true,
      "inputs": [
        {
          "name": "gracePeriodInDays",
          "type": "uint256"
        }
      ],
      "name": "timestampAdjustedForGracePeriod",
      "outputs": [
        {
          "name": "",
          "type": "uint256"
        }
      ],
      "payable": false,
      "stateMutability": "view",
      "type": "function"
    },
    {
      "constant": false,
      "inputs": [
        {
          "name": "agreementId",
          "type": "bytes32"
        },
        {
          "name": "collateralizer",
          "type": "address"
        }
      ],
      "name": "mockDummyAgreementCollateralizer",
      "outputs": [],
      "payable": false,
      "stateMutability": "nonpayable",
      "type": "function"
    },
    {
      "constant": false,
      "inputs": [
        {
          "name": "agreementId",
          "type": "bytes32"
        },
        {
          "name": "payer",
          "type": "address"
        },
        {
          "name": "beneficiary",
          "type": "address"
        },
        {
          "name": "unitsOfRepayment",
          "type": "uint256"
        },
        {
          "name": "tokenAddress",
          "type": "address"
        }
      ],
      "name": "registerRepayment",
      "outputs": [
        {
          "name": "_success",
          "type": "bool"
        }
      ],
      "payable": false,
      "stateMutability": "nonpayable",
      "type": "function"
    },
    {
      "constant": true,
      "inputs": [],
      "name": "SECONDS_IN_DAY",
      "outputs": [
        {
          "name": "",
          "type": "uint256"
        }
      ],
      "payable": false,
      "stateMutability": "view",
      "type": "function"
    },
    {
      "constant": false,
      "inputs": [
        {
          "name": "agreementId",
          "type": "bytes32"
        },
        {
          "name": "debtor",
          "type": "address"
        }
      ],
      "name": "registerTermStart",
      "outputs": [
        {
          "name": "_success",
          "type": "bool"
        }
      ],
      "payable": false,
      "stateMutability": "nonpayable",
      "type": "function"
    },
    {
      "constant": true,
      "inputs": [
        {
          "name": "agreementId",
          "type": "bytes32"
        },
        {
          "name": "timestamp",
          "type": "uint256"
        }
      ],
      "name": "getExpectedRepaymentValue",
      "outputs": [
        {
          "name": "",
          "type": "uint256"
        }
      ],
      "payable": false,
      "stateMutability": "view",
      "type": "function"
    },
    {
      "constant": true,
      "inputs": [],
      "name": "tokenRegistry",
      "outputs": [
        {
          "name": "",
          "type": "address"
        }
      ],
      "payable": false,
      "stateMutability": "view",
      "type": "function"
    },
    {
      "constant": false,
      "inputs": [
        {
          "name": "agreementId",
          "type": "bytes32"
        },
        {
          "name": "timestamp",
          "type": "uint256"
        }
      ],
      "name": "mockTermEndTimestamp",
      "outputs": [],
      "payable": false,
      "stateMutability": "nonpayable",
      "type": "function"
    },
    {
      "constant": false,
      "inputs": [
        {
          "name": "agreementId",
          "type": "bytes32"
        },
        {
          "name": "timestamp",
          "type": "uint256"
        },
        {
          "name": "amount",
          "type": "uint256"
        }
      ],
      "name": "mockExpectedRepaymentValue",
      "outputs": [],
      "payable": false,
      "stateMutability": "nonpayable",
      "type": "function"
    },
    {
      "constant": true,
      "inputs": [
        {
          "name": "parameters",
          "type": "bytes32"
        }
      ],
      "name": "unpackCollateralParametersFromBytes",
      "outputs": [
        {
          "name": "",
          "type": "uint256"
        },
        {
          "name": "",
          "type": "uint256"
        },
        {
          "name": "",
          "type": "uint256"
        }
      ],
      "payable": false,
      "stateMutability": "pure",
      "type": "function"
    },
    {
      "constant": true,
      "inputs": [
        {
          "name": "",
          "type": "bytes32"
        }
      ],
      "name": "agreementToCollateralizer",
      "outputs": [
        {
          "name": "",
          "type": "address"
        }
      ],
      "payable": false,
      "stateMutability": "view",
      "type": "function"
    },
    {
      "constant": false,
      "inputs": [
        {
          "name": "agreementId",
          "type": "bytes32"
        }
      ],
      "name": "reset",
      "outputs": [],
      "payable": false,
      "stateMutability": "nonpayable",
      "type": "function"
    },
    {
      "constant": false,
      "inputs": [
        {
          "name": "agreementId",
          "type": "bytes32"
        }
      ],
      "name": "seizeCollateral",
      "outputs": [],
      "payable": false,
      "stateMutability": "nonpayable",
      "type": "function"
    },
    {
      "inputs": [
        {
          "name": "_debtKernel",
          "type": "address"
        },
        {
          "name": "_debtRegistry",
          "type": "address"
        },
        {
          "name": "_tokenRegistry",
          "type": "address"
        }
      ],
      "payable": false,
      "stateMutability": "nonpayable",
      "type": "constructor"
    },
    {
      "anonymous": false,
      "inputs": [
        {
          "indexed": true,
          "name": "agreementID",
          "type": "bytes32"
        },
        {
          "indexed": false,
          "name": "token",
          "type": "address"
        },
        {
          "indexed": false,
          "name": "amount",
          "type": "uint256"
        }
      ],
      "name": "CollateralLocked",
      "type": "event"
    },
    {
      "anonymous": false,
      "inputs": [
        {
          "indexed": true,
          "name": "agreementID",
          "type": "bytes32"
        },
        {
          "indexed": true,
          "name": "collateralizer",
          "type": "address"
        },
        {
          "indexed": false,
          "name": "token",
          "type": "address"
        },
        {
          "indexed": false,
          "name": "amount",
          "type": "uint256"
        }
      ],
      "name": "CollateralReturned",
      "type": "event"
    },
    {
      "anonymous": false,
      "inputs": [
        {
          "indexed": true,
          "name": "agreementID",
          "type": "bytes32"
        },
        {
          "indexed": true,
          "name": "beneficiary",
          "type": "address"
        },
        {
          "indexed": false,
          "name": "token",
          "type": "address"
        },
        {
          "indexed": false,
          "name": "amount",
          "type": "uint256"
        }
      ],
      "name": "CollateralSeized",
      "type": "event"
    }
  ],
  "bytecode": "0x6060604052341561000f57600080fd5b60405160608061195783398101604052808051906020019091908051906020019091908051906020019091905050828282826000806101000a81548173ffffffffffffffffffffffffffffffffffffffff021916908373ffffffffffffffffffffffffffffffffffffffff16021790555081600160006101000a81548173ffffffffffffffffffffffffffffffffffffffff021916908373ffffffffffffffffffffffffffffffffffffffff16021790555080600260006101000a81548173ffffffffffffffffffffffffffffffffffffffff021916908373ffffffffffffffffffffffffffffffffffffffff160217905550505050505050611840806101176000396000f300606060405260043610610106576000357c0100000000000000000000000000000000000000000000000000000000900463ffffffff1680627eb6671461010b57806303a896a11461016057806306e9d7cd1461019b5780632762dd8c146101cb5780632f866f731461020657806344c4ea951461025b5780634bbf7a671461028257806354ea44ca146102b95780635f0280ba146102ff57806361a52a36146103a4578063977a5e64146103cd57806399114d841461042b5780639d23c4c71461046f578063b433022f146104c4578063c73e02b0146104f4578063ca0626471461052d578063e4b67a4c14610576578063ed3c7d40146105dd578063ed8e52bd14610604575b600080fd5b341561011657600080fd5b61011e61062b565b604051808273ffffffffffffffffffffffffffffffffffffffff1673ffffffffffffffffffffffffffffffffffffffff16815260200191505060405180910390f35b341561016b57600080fd5b610185600480803560001916906020019091905050610650565b6040518082815260200191505060405180910390f35b34156101a657600080fd5b6101c9600480803560001916906020019091908035906020019091905050610675565b005b34156101d657600080fd5b6101f0600480803560001916906020019091905050610699565b6040518082815260200191505060405180910390f35b341561021157600080fd5b6102196106be565b604051808273ffffffffffffffffffffffffffffffffffffffff1673ffffffffffffffffffffffffffffffffffffffff16815260200191505060405180910390f35b341561026657600080fd5b6102806004808035600019169060200190919050506106e4565b005b341561028d57600080fd5b6102a360048080359060200190919050506109d2565b6040518082815260200191505060405180910390f35b34156102c457600080fd5b6102fd60048080356000191690602001909190803573ffffffffffffffffffffffffffffffffffffffff16906020019091905050610a03565b005b341561030a57600080fd5b61038a60048080356000191690602001909190803573ffffffffffffffffffffffffffffffffffffffff1690602001909190803573ffffffffffffffffffffffffffffffffffffffff1690602001909190803590602001909190803573ffffffffffffffffffffffffffffffffffffffff16906020019091905050610a61565b604051808215151515815260200191505060405180910390f35b34156103af57600080fd5b6103b7610a6f565b6040518082815260200191505060405180910390f35b34156103d857600080fd5b61041160048080356000191690602001909190803573ffffffffffffffffffffffffffffffffffffffff16906020019091905050610a76565b604051808215151515815260200191505060405180910390f35b341561043657600080fd5b610459600480803560001916906020019091908035906020019091905050610a8a565b6040518082815260200191505060405180910390f35b341561047a57600080fd5b610482610b27565b604051808273ffffffffffffffffffffffffffffffffffffffff1673ffffffffffffffffffffffffffffffffffffffff16815260200191505060405180910390f35b34156104cf57600080fd5b6104f2600480803560001916906020019091908035906020019091905050610b4d565b005b34156104ff57600080fd5b61052b600480803560001916906020019091908035906020019091908035906020019091905050610b71565b005b341561053857600080fd5b610552600480803560001916906020019091905050610c56565b60405180848152602001838152602001828152602001935050505060405180910390f35b341561058157600080fd5b61059b600480803560001916906020019091905050610ce2565b604051808273ffffffffffffffffffffffffffffffffffffffff1673ffffffffffffffffffffffffffffffffffffffff16815260200191505060405180910390f35b34156105e857600080fd5b610602600480803560001916906020019091905050610d15565b005b341561060f57600080fd5b610629600480803560001916906020019091905050610d85565b005b6000809054906101000a900473ffffffffffffffffffffffffffffffffffffffff1681565b6000600460008360001916600019168152602001908152602001600020549050919050565b80600460008460001916600019168152602001908152602001600020819055505050565b6000600860008360001916600019168152602001908152602001600020549050919050565b600160009054906101000a900473ffffffffffffffffffffffffffffffffffffffff1681565b6000806000806106f3856110e4565b80945081955082965050505060008311151561070e57600080fd5b600073ffffffffffffffffffffffffffffffffffffffff168473ffffffffffffffffffffffffffffffffffffffff161415151561074a57600080fd5b600073ffffffffffffffffffffffffffffffffffffffff1660036000876000191660001916815260200190815260200160002060009054906101000a900473ffffffffffffffffffffffffffffffffffffffff1673ffffffffffffffffffffffffffffffffffffffff16141515156107c157600080fd5b426107cb86610699565b1015156107d757600080fd5b6107e085610650565b6107ea8642610a8a565b111515156107f757600080fd5b60036000866000191660001916815260200190815260200160002060009054906101000a900473ffffffffffffffffffffffffffffffffffffffff16905060036000866000191660001916815260200190815260200160002060006101000a81549073ffffffffffffffffffffffffffffffffffffffff02191690558373ffffffffffffffffffffffffffffffffffffffff1663a9059cbb82856000604051602001526040518363ffffffff167c0100000000000000000000000000000000000000000000000000000000028152600401808373ffffffffffffffffffffffffffffffffffffffff1673ffffffffffffffffffffffffffffffffffffffff16815260200182815260200192505050602060405180830381600087803b151561091e57600080fd5b6102c65a03f1151561092f57600080fd5b50505060405180519050151561094457600080fd5b8073ffffffffffffffffffffffffffffffffffffffff1685600019167f2621540e2b91ca10330d6a7cbd6fb8cab2396f91c4935ad76b1183770819fa1f8686604051808373ffffffffffffffffffffffffffffffffffffffff1673ffffffffffffffffffffffffffffffffffffffff1681526020018281526020019250505060405180910390a35050505050565b60006109fc6109ed83620151806112d690919063ffffffff16565b4261131190919063ffffffff16565b9050919050565b8060036000846000191660001916815260200190815260200160002060006101000a81548173ffffffffffffffffffffffffffffffffffffffff021916908373ffffffffffffffffffffffffffffffffffffffff1602179055505050565b600080905095945050505050565b6201518081565b6000610a82838361132a565b905092915050565b600080600080600091505b6005821015610aef5760066000876000191660001916815260200190815260200160002082600581101515610ac657fe5b01549050848111158015610ad957508281115b15610ae2578092505b8180600101925050610a95565b600560008760001916600019168152602001908152602001600020600084815260200190815260200160002054935050505092915050565b600260009054906101000a900473ffffffffffffffffffffffffffffffffffffffff1681565b80600860008460001916600019168152602001908152602001600020819055505050565b6000806005600086600019166000191681526020019081526020016000206000858152602001908152602001600020541415610c1f576007600085600019166000191681526020019081526020016000205490508260066000866000191660001916815260200190815260200160002082600581101515610bee57fe5b0181905550600760008560001916600019168152602001908152602001600020600081548092919060010191905055505b8160056000866000191660001916815260200190815260200160002060008581526020019081526020016000208190555050505050565b6000806000806000806000806d0ff0000000000000000000000000600102891694506c0fffffffffffffffffffffff00600102891693506c100000000000000000000000008560019004811515610ca957fe5b0492506101008460019004811515610cbd57fe5b04915060ff600102891690508282826001900497509750975050505050509193909250565b60036020528060005260406000206000915054906101000a900473ffffffffffffffffffffffffffffffffffffffff1681565b60008090505b6005811015610d6057600060066000846000191660001916815260200190815260200160002082600581101515610d4e57fe5b01819055508080600101915050610d1b565b6000600760008460001916600019168152602001908152602001600020819055505050565b600080600080610d94856110e4565b809450819550829650505050600083111515610daf57600080fd5b600073ffffffffffffffffffffffffffffffffffffffff168473ffffffffffffffffffffffffffffffffffffffff1614151515610deb57600080fd5b600073ffffffffffffffffffffffffffffffffffffffff1660036000876000191660001916815260200190815260200160002060009054906101000a900473ffffffffffffffffffffffffffffffffffffffff1673ffffffffffffffffffffffffffffffffffffffff1614151515610e6257600080fd5b610e6b85610650565b610e7d86610e78856109d2565b610a8a565b111515610e8957600080fd5b60036000866000191660001916815260200190815260200160002060006101000a81549073ffffffffffffffffffffffffffffffffffffffff0219169055600160009054906101000a900473ffffffffffffffffffffffffffffffffffffffff1673ffffffffffffffffffffffffffffffffffffffff1663ba20dda4866000604051602001526040518263ffffffff167c0100000000000000000000000000000000000000000000000000000000028152600401808260001916600019168152602001915050602060405180830381600087803b1515610f6857600080fd5b6102c65a03f11515610f7957600080fd5b5050506040518051905090508373ffffffffffffffffffffffffffffffffffffffff1663a9059cbb82856000604051602001526040518363ffffffff167c0100000000000000000000000000000000000000000000000000000000028152600401808373ffffffffffffffffffffffffffffffffffffffff1673ffffffffffffffffffffffffffffffffffffffff16815260200182815260200192505050602060405180830381600087803b151561103057600080fd5b6102c65a03f1151561104157600080fd5b50505060405180519050151561105657600080fd5b8073ffffffffffffffffffffffffffffffffffffffff1685600019167f50d195a4b80a950617a8e0e18ac9dd4c0236ac72d5e12355d881443823870d398686604051808373ffffffffffffffffffffffffffffffffffffffff1673ffffffffffffffffffffffffffffffffffffffff1681526020018281526020019250505060405180910390a35050505050565b6000806000806000806000806000600160009054906101000a900473ffffffffffffffffffffffffffffffffffffffff1673ffffffffffffffffffffffffffffffffffffffff16636be39bda8b6000604051604001526040518263ffffffff167c01000000000000000000000000000000000000000000000000000000000281526004018082600019166000191681526020019150506040805180830381600087803b151561119257600080fd5b6102c65a03f115156111a357600080fd5b5050506040518051906020018051905080965081975050503073ffffffffffffffffffffffffffffffffffffffff168673ffffffffffffffffffffffffffffffffffffffff161415156111f557600080fd5b6111fe85610c56565b809450819550829650505050600260009054906101000a900473ffffffffffffffffffffffffffffffffffffffff1673ffffffffffffffffffffffffffffffffffffffff16635715c5b7856000604051602001526040518263ffffffff167c010000000000000000000000000000000000000000000000000000000002815260040180828152602001915050602060405180830381600087803b15156112a357600080fd5b6102c65a03f115156112b457600080fd5b5050506040518051905090508083839850985098505050505050509193909250565b60008060008414156112eb576000915061130a565b82840290508284828115156112fc57fe5b0414151561130657fe5b8091505b5092915050565b600082821115151561131f57fe5b818303905092915050565b6000806000806000806000809054906101000a900473ffffffffffffffffffffffffffffffffffffffff1673ffffffffffffffffffffffffffffffffffffffff163373ffffffffffffffffffffffffffffffffffffffff1614151561138e57600080fd5b611397886110e4565b8095508196508297505050506000841115156113b257600080fd5b600073ffffffffffffffffffffffffffffffffffffffff168573ffffffffffffffffffffffffffffffffffffffff16141515156113ee57600080fd5b600073ffffffffffffffffffffffffffffffffffffffff16600360008a6000191660001916815260200190815260200160002060009054906101000a900473ffffffffffffffffffffffffffffffffffffffff1673ffffffffffffffffffffffffffffffffffffffff1614151561146457600080fd5b849150309050838273ffffffffffffffffffffffffffffffffffffffff166370a08231896000604051602001526040518263ffffffff167c0100000000000000000000000000000000000000000000000000000000028152600401808273ffffffffffffffffffffffffffffffffffffffff1673ffffffffffffffffffffffffffffffffffffffff168152602001915050602060405180830381600087803b151561150e57600080fd5b6102c65a03f1151561151f57600080fd5b505050604051805190501015151561153657600080fd5b838273ffffffffffffffffffffffffffffffffffffffff1663dd62ed3e89846000604051602001526040518363ffffffff167c0100000000000000000000000000000000000000000000000000000000028152600401808373ffffffffffffffffffffffffffffffffffffffff1673ffffffffffffffffffffffffffffffffffffffff1681526020018273ffffffffffffffffffffffffffffffffffffffff1673ffffffffffffffffffffffffffffffffffffffff16815260200192505050602060405180830381600087803b151561160e57600080fd5b6102c65a03f1151561161f57600080fd5b505050604051805190501015151561163657600080fd5b86600360008a6000191660001916815260200190815260200160002060006101000a81548173ffffffffffffffffffffffffffffffffffffffff021916908373ffffffffffffffffffffffffffffffffffffffff1602179055508173ffffffffffffffffffffffffffffffffffffffff166323b872dd8883876000604051602001526040518463ffffffff167c0100000000000000000000000000000000000000000000000000000000028152600401808473ffffffffffffffffffffffffffffffffffffffff1673ffffffffffffffffffffffffffffffffffffffff1681526020018373ffffffffffffffffffffffffffffffffffffffff1673ffffffffffffffffffffffffffffffffffffffff1681526020018281526020019350505050602060405180830381600087803b151561176f57600080fd5b6102c65a03f1151561178057600080fd5b50505060405180519050151561179557600080fd5b87600019167f38f12634ebefbe7f6767652aae05e220f95e0ca8ef8353c9c9c5ae439a592aec8686604051808373ffffffffffffffffffffffffffffffffffffffff1673ffffffffffffffffffffffffffffffffffffffff1681526020018281526020019250505060405180910390a2600195505050505050929150505600a165627a7a723058209e39a4b1dec948221915d256bfd88e6cbb80c55ff0809a32f2b395d3a44c33cb0029",
  "source": "pragma solidity 0.4.18;\n\nimport \"zeppelin-solidity/contracts/math/SafeMath.sol\";\n\nimport \"../../examples/Collateralized.sol\";\n\n\ncontract MockCollateralizedTermsContract is Collateralized {\n    using SafeMath for uint;\n\n    // Maps from agreementId's to the amount repaid to date\n    mapping (bytes32 => uint) internal amountRepaid;\n    // Maps from agreementId's to a mapping of timestamps to the expected\n    // value repaid at said timestamp\n    mapping (bytes32 => mapping (uint => uint)) internal expectedValueRepaidAtTimestamp;\n    // Maps from agreementId's to a list of timestamps at which\n    // repayments are expected (used primarily for resetting our mocks)\n    mapping (bytes32 => uint[5]) internal expectedRepaymentSchedule;\n    // Maps from agreementId's to the number of repayment dates\n    // expected for that agreement\n    mapping (bytes32 => uint) internal numRepaymentTimestamps;\n    // Maps from agreementId's to the mocked term end timestamp\n    mapping (bytes32 => uint) internal termEndTimestamp;\n\n    function MockCollateralizedTermsContract(\n        address _debtKernel,\n        address _debtRegistry,\n        address _tokenRegistry\n    ) public Collateralized(\n        _debtKernel,\n        _debtRegistry,\n        _tokenRegistry\n    ) {}\n\n    function registerTermStart(\n        bytes32 agreementId,\n        address debtor\n    ) public returns (bool _success) {\n        return super.registerTermStart(agreementId, debtor);\n    }\n\n    function registerRepayment(\n        bytes32 agreementId,\n        address payer,\n        address beneficiary,\n        uint256 unitsOfRepayment,\n        address tokenAddress\n    ) public returns (bool _success) {\n        return false;\n    }\n\n    function getExpectedRepaymentValue(\n        bytes32 agreementId,\n        uint256 timestamp\n    ) public view returns (uint256) {\n        uint latestDueDateBeforeTimestamp;\n\n        // Iterate over each mocked repayment timestamp associated with the\n        // agreement ID and find the LATEST timestamp that is BEFORE\n        // the timestamp specified in the functiom arguments\n        for (uint i = 0; i < 5; i++) {\n            uint dueDateTimestamp = expectedRepaymentSchedule[agreementId][i];\n\n            if (dueDateTimestamp <= timestamp &&\n                dueDateTimestamp > latestDueDateBeforeTimestamp) {\n                latestDueDateBeforeTimestamp = dueDateTimestamp;\n            }\n        }\n\n        // Return the expected value repaid at said timestamp\n        return expectedValueRepaidAtTimestamp[agreementId][latestDueDateBeforeTimestamp];\n    }\n\n    function getTermEndTimestamp(\n        bytes32 agreementId\n    ) public view returns (uint256) {\n        return termEndTimestamp[agreementId];\n    }\n\n    function getValueRepaidToDate(\n        bytes32 agreementId\n    ) public view returns (uint256) {\n        return amountRepaid[agreementId];\n    }\n\n    /* Dummy functionality used to mock behavior for testing purposes. */\n\n    function mockDummyValueRepaid(\n        bytes32 agreementId,\n        uint amount\n    ) public {\n        amountRepaid[agreementId] = amount;\n    }\n\n    function mockExpectedRepaymentValue(\n        bytes32 agreementId,\n        uint timestamp,\n        uint amount\n    ) public {\n        // If timestamp is not mocked already, append it to list of repayment timestamps\n        // associated with agreementId\n        if (expectedValueRepaidAtTimestamp[agreementId][timestamp] == 0) {\n            uint numRepaymentTimestampsForAgreement = numRepaymentTimestamps[agreementId];\n            expectedRepaymentSchedule[agreementId][numRepaymentTimestampsForAgreement] = timestamp;\n            numRepaymentTimestamps[agreementId]++;\n        }\n\n        expectedValueRepaidAtTimestamp[agreementId][timestamp] = amount;\n    }\n\n    function mockTermEndTimestamp(\n        bytes32 agreementId,\n        uint timestamp\n    ) public {\n        termEndTimestamp[agreementId] = timestamp;\n    }\n\n    function mockDummyAgreementCollateralizer(\n        bytes32 agreementId,\n        address collateralizer\n    ) public {\n        agreementToCollateralizer[agreementId] = collateralizer;\n    }\n\n    function reset(bytes32 agreementId) public {\n        for (uint i = 0; i < 5; i++) {\n            expectedRepaymentSchedule[agreementId][i] = 0;\n        }\n\n        numRepaymentTimestamps[agreementId] = 0;\n    }\n}\n",
  "sourcePath": "/Users/frostiq/source/dharma/charta/contracts/test/mocks/MockCollateralizedTermsContract.sol",
  "compiler": {
    "name": "solc",
    "version": "0.4.18+commit.9cf6e910.Emscripten.clang"
  },
  "schemaVersion": "1.0.1",
  "updatedAt": "2018-03-28T11:29:52.296Z"
}