{
  "contractName": "MockDebtRegistry",
  "abi": [
    {
      "constant": true,
      "inputs": [
        {
          "name": "functionName",
          "type": "string"
        },
        {
          "name": "argsSignature",
          "type": "bytes32"
        }
      ],
      "name": "getMockReturnValue",
      "outputs": [
        {
          "name": "_mockReturnValue",
          "type": "bytes32"
        }
      ],
      "payable": false,
      "stateMutability": "view",
      "type": "function"
    },
    {
      "constant": false,
      "inputs": [
        {
          "name": "issuanceHash",
          "type": "bytes32"
        },
        {
          "name": "termsContract",
          "type": "address"
        }
      ],
      "name": "mockGetTermsContractReturnValueFor",
      "outputs": [],
      "payable": false,
      "stateMutability": "nonpayable",
      "type": "function"
    },
    {
      "constant": true,
      "inputs": [
        {
          "name": "_version",
          "type": "address"
        },
        {
          "name": "_beneficiary",
          "type": "address"
        },
        {
          "name": "_debtor",
          "type": "address"
        },
        {
          "name": "_underwriter",
          "type": "address"
        },
        {
          "name": "_underwriterRiskRating",
          "type": "uint256"
        },
        {
          "name": "_termsContract",
          "type": "address"
        },
        {
          "name": "_termsContractParameters",
          "type": "bytes32"
        },
        {
          "name": "_salt",
          "type": "uint256"
        }
      ],
      "name": "wasInsertCalledWith",
      "outputs": [
        {
          "name": "_wasCalled",
          "type": "bool"
        }
      ],
      "payable": false,
      "stateMutability": "view",
      "type": "function"
    },
    {
      "constant": true,
      "inputs": [
        {
          "name": "issuanceHash",
          "type": "bytes32"
        }
      ],
      "name": "getTermsContractParameters",
      "outputs": [
        {
          "name": "",
          "type": "bytes32"
        }
      ],
      "payable": false,
      "stateMutability": "view",
      "type": "function"
    },
    {
      "constant": false,
      "inputs": [
        {
          "name": "issuanceHash",
          "type": "bytes32"
        },
        {
          "name": "newBeneficiary",
          "type": "address"
        }
      ],
      "name": "modifyBeneficiary",
      "outputs": [],
      "payable": false,
      "stateMutability": "nonpayable",
      "type": "function"
    },
    {
      "constant": true,
      "inputs": [
        {
          "name": "issuanceHash",
          "type": "bytes32"
        }
      ],
      "name": "getTerms",
      "outputs": [
        {
          "name": "_termsContract",
          "type": "address"
        },
        {
          "name": "_termsContractParameters",
          "type": "bytes32"
        }
      ],
      "payable": false,
      "stateMutability": "view",
      "type": "function"
    },
    {
      "constant": false,
      "inputs": [
        {
          "name": "issuanceHash",
          "type": "bytes32"
        },
        {
          "name": "params",
          "type": "bytes32"
        }
      ],
      "name": "mockGetTermsContractParameters",
      "outputs": [],
      "payable": false,
      "stateMutability": "nonpayable",
      "type": "function"
    },
    {
      "constant": false,
      "inputs": [
        {
          "name": "functionName",
          "type": "string"
        },
        {
          "name": "argsSignature",
          "type": "bytes32"
        },
        {
          "name": "returnValue",
          "type": "bytes32"
        }
      ],
      "name": "mockReturnValue",
      "outputs": [],
      "payable": false,
      "stateMutability": "nonpayable",
      "type": "function"
    },
    {
      "constant": false,
      "inputs": [
        {
          "name": "issuanceHash",
          "type": "bytes32"
        },
        {
          "name": "timestamp",
          "type": "uint256"
        }
      ],
      "name": "mockGetIssuanceBlockTimestamp",
      "outputs": [],
      "payable": false,
      "stateMutability": "nonpayable",
      "type": "function"
    },
    {
      "constant": false,
      "inputs": [
        {
          "name": "issuanceHash",
          "type": "bytes32"
        }
      ],
      "name": "mockInsertReturnValue",
      "outputs": [],
      "payable": false,
      "stateMutability": "nonpayable",
      "type": "function"
    },
    {
      "constant": false,
      "inputs": [
        {
          "name": "issuanceHash",
          "type": "bytes32"
        },
        {
          "name": "termsContract",
          "type": "address"
        },
        {
          "name": "termsContractParameters",
          "type": "bytes32"
        }
      ],
      "name": "mockGetTermsReturnValueFor",
      "outputs": [],
      "payable": false,
      "stateMutability": "nonpayable",
      "type": "function"
    },
    {
      "constant": true,
      "inputs": [
        {
          "name": "issuanceHash",
          "type": "bytes32"
        }
      ],
      "name": "getBeneficiary",
      "outputs": [
        {
          "name": "_mockBeneficiary",
          "type": "address"
        }
      ],
      "payable": false,
      "stateMutability": "view",
      "type": "function"
    },
    {
      "constant": false,
      "inputs": [
        {
          "name": "_version",
          "type": "address"
        },
        {
          "name": "_beneficiary",
          "type": "address"
        },
        {
          "name": "_debtor",
          "type": "address"
        },
        {
          "name": "_underwriter",
          "type": "address"
        },
        {
          "name": "_underwriterRiskRating",
          "type": "uint256"
        },
        {
          "name": "_termsContract",
          "type": "address"
        },
        {
          "name": "_termsContractParameters",
          "type": "bytes32"
        },
        {
          "name": "_salt",
          "type": "uint256"
        }
      ],
      "name": "insert",
      "outputs": [
        {
          "name": "_issuanceHash",
          "type": "bytes32"
        }
      ],
      "payable": false,
      "stateMutability": "nonpayable",
      "type": "function"
    },
    {
      "constant": true,
      "inputs": [
        {
          "name": "issuanceHash",
          "type": "bytes32"
        }
      ],
      "name": "getIssuanceBlockTimestamp",
      "outputs": [
        {
          "name": "timestamp",
          "type": "uint256"
        }
      ],
      "payable": false,
      "stateMutability": "view",
      "type": "function"
    },
    {
      "constant": false,
      "inputs": [],
      "name": "reset",
      "outputs": [],
      "payable": false,
      "stateMutability": "nonpayable",
      "type": "function"
    },
    {
      "constant": false,
      "inputs": [
        {
          "name": "issuanceHash",
          "type": "bytes32"
        },
        {
          "name": "beneficiary",
          "type": "address"
        }
      ],
      "name": "mockGetBeneficiaryReturnValueFor",
      "outputs": [],
      "payable": false,
      "stateMutability": "nonpayable",
      "type": "function"
    },
    {
      "constant": true,
      "inputs": [
        {
          "name": "issuanceHash",
          "type": "bytes32"
        },
        {
          "name": "newBeneficiary",
          "type": "address"
        }
      ],
      "name": "wasModifyBeneficiaryCalledWith",
      "outputs": [
        {
          "name": "_wasCalled",
          "type": "bool"
        }
      ],
      "payable": false,
      "stateMutability": "view",
      "type": "function"
    },
    {
      "constant": true,
      "inputs": [
        {
          "name": "issuanceHash",
          "type": "bytes32"
        }
      ],
      "name": "getTermsContract",
      "outputs": [
        {
          "name": "_termsContract",
          "type": "address"
        }
      ],
      "payable": false,
      "stateMutability": "view",
      "type": "function"
    }
  ],
  "bytecode": "0x6060604052341561000f57600080fd5b611a7d8061001e6000396000f3006060604052600436106100fc576000357c0100000000000000000000000000000000000000000000000000000000900463ffffffff168063131018581461010157806318d2efef14610187578063212e5da1146101cd578063314a522e146102b95780635969549e146102fc5780636be39bda146103425780636ea5f93a146103b857806380da20d4146103ec5780638dc8a7b2146104635780639feff4cc14610493578063b4045ae9146104ba578063ba20dda41461050d578063cf9df5eb14610574578063d69dbf6314610664578063d826f88f1461069f578063f0450a5c146106b4578063f6a61896146106fa578063f6f494c914610758575b600080fd5b341561010c57600080fd5b610169600480803590602001908201803590602001908080601f01602080910402602001604051908101604052809392919081815260200183838082843782019150505050505091908035600019169060200190919050506107bf565b60405180826000191660001916815260200191505060405180910390f35b341561019257600080fd5b6101cb60048080356000191690602001909190803573ffffffffffffffffffffffffffffffffffffffff1690602001909190505061084e565b005b34156101d857600080fd5b61029f600480803573ffffffffffffffffffffffffffffffffffffffff1690602001909190803573ffffffffffffffffffffffffffffffffffffffff1690602001909190803573ffffffffffffffffffffffffffffffffffffffff1690602001909190803573ffffffffffffffffffffffffffffffffffffffff1690602001909190803590602001909190803573ffffffffffffffffffffffffffffffffffffffff16906020019091908035600019169060200190919080359060200190919050506108ab565b604051808215151515815260200191505060405180910390f35b34156102c457600080fd5b6102de600480803560001916906020019091905050610a76565b60405180826000191660001916815260200191505060405180910390f35b341561030757600080fd5b61034060048080356000191690602001909190803573ffffffffffffffffffffffffffffffffffffffff16906020019091905050610abe565b005b341561034d57600080fd5b610367600480803560001916906020019091905050610b6b565b604051808373ffffffffffffffffffffffffffffffffffffffff1673ffffffffffffffffffffffffffffffffffffffff16815260200182600019166000191681526020019250505060405180910390f35b34156103c357600080fd5b6103ea60048080356000191690602001909190803560001916906020019091905050610bf9565b005b34156103f757600080fd5b610461600480803590602001908201803590602001908080601f016020809104026020016040519081016040528093929190818152602001838380828437820191505050505050919080356000191690602001909190803560001916906020019091905050610c3d565b005b341561046e57600080fd5b610491600480803560001916906020019091908035906020019091905050610d67565b005b341561049e57600080fd5b6104b8600480803560001916906020019091905050610dae565b005b34156104c557600080fd5b61050b60048080356000191690602001909190803573ffffffffffffffffffffffffffffffffffffffff1690602001909190803560001916906020019091905050610df5565b005b341561051857600080fd5b610532600480803560001916906020019091905050610e93565b604051808273ffffffffffffffffffffffffffffffffffffffff1673ffffffffffffffffffffffffffffffffffffffff16815260200191505060405180910390f35b341561057f57600080fd5b610646600480803573ffffffffffffffffffffffffffffffffffffffff1690602001909190803573ffffffffffffffffffffffffffffffffffffffff1690602001909190803573ffffffffffffffffffffffffffffffffffffffff1690602001909190803573ffffffffffffffffffffffffffffffffffffffff1690602001909190803590602001909190803573ffffffffffffffffffffffffffffffffffffffff1690602001909190803560001916906020019091908035906020019091905050610edf565b60405180826000191660001916815260200191505060405180910390f35b341561066f57600080fd5b610689600480803560001916906020019091905050611102565b6040518082815260200191505060405180910390f35b34156106aa57600080fd5b6106b261114e565b005b34156106bf57600080fd5b6106f860048080356000191690602001909190803573ffffffffffffffffffffffffffffffffffffffff16906020019091905050611445565b005b341561070557600080fd5b61073e60048080356000191690602001909190803573ffffffffffffffffffffffffffffffffffffffff169060200190919050506114a2565b604051808215151515815260200191505060405180910390f35b341561076357600080fd5b61077d60048080356000191690602001909190505061154b565b604051808273ffffffffffffffffffffffffffffffffffffffff1673ffffffffffffffffffffffffffffffffffffffff16815260200191505060405180910390f35b60006001836040518082805190602001908083835b6020831015156107f957805182526020820191506020810190506020830392506107d4565b6001836020036101000a03801982511681845116808217855250505050505090500191505090815260200160405180910390206000836000191660001916815260200190815260200160002054905092915050565b6108a76040805190810160405280601081526020017f6765745465726d73436f6e747261637400000000000000000000000000000000815250838373ffffffffffffffffffffffffffffffffffffffff16600102610c3d565b5050565b6000610a686040805190810160405280600681526020017f696e7365727400000000000000000000000000000000000000000000000000008152508a8a8a8a8a8a8a8a604051808973ffffffffffffffffffffffffffffffffffffffff1673ffffffffffffffffffffffffffffffffffffffff166c010000000000000000000000000281526014018873ffffffffffffffffffffffffffffffffffffffff1673ffffffffffffffffffffffffffffffffffffffff166c010000000000000000000000000281526014018773ffffffffffffffffffffffffffffffffffffffff1673ffffffffffffffffffffffffffffffffffffffff166c010000000000000000000000000281526014018673ffffffffffffffffffffffffffffffffffffffff1673ffffffffffffffffffffffffffffffffffffffff166c010000000000000000000000000281526014018581526020018473ffffffffffffffffffffffffffffffffffffffff1673ffffffffffffffffffffffffffffffffffffffff166c010000000000000000000000000281526014018360001916600019168152602001828152602001985050505050505050506040518091039020611597565b905098975050505050505050565b6000610ab76040805190810160405280601a81526020017f6765745465726d73436f6e7472616374506172616d6574657273000000000000815250836107bf565b9050919050565b610b5d6040805190810160405280601181526020017f6d6f6469667942656e656669636961727900000000000000000000000000000081525083836040518083600019166000191681526020018273ffffffffffffffffffffffffffffffffffffffff1673ffffffffffffffffffffffffffffffffffffffff166c01000000000000000000000000028152601401925050506040518091039020611633565b610b678282611445565b5050565b600080610bad6040805190810160405280601681526020017f6765745465726d735f7465726d73436f6e747261637400000000000000000000815250846107bf565b60019004610bf06040805190810160405280602081526020017f6765745465726d735f7465726d73436f6e7472616374506172616d6574657273815250856107bf565b91509150915091565b610c396040805190810160405280601a81526020017f6765745465726d73436f6e7472616374506172616d65746572730000000000008152508383610c3d565b5050565b6000836040518082805190602001908083835b602083101515610c755780518252602082019150602081019050602083039250610c50565b6001836020036101000a03801982511681845116808217855250505050505090500191505090815260200160405180910390208054806001018281610cba9190611988565b916000526020600020900160008490919091509060001916905550806001846040518082805190602001908083835b602083101515610d0e5780518252602082019150602081019050602083039250610ce9565b6001836020036101000a0380198251168184511680821785525050505050509050019150509081526020016040518091039020600084600019166000191681526020019081526020016000208160001916905550505050565b610daa6040805190810160405280601981526020017f67657449737375616e6365426c6f636b54696d657374616d70000000000000008152508383600102610c3d565b5050565b610df26040805190810160405280600681526020017f696e736572740000000000000000000000000000000000000000000000000000815250600060010283610c3d565b50565b610e4e6040805190810160405280601681526020017f6765745465726d735f7465726d73436f6e747261637400000000000000000000815250848473ffffffffffffffffffffffffffffffffffffffff16600102610c3d565b610e8e6040805190810160405280602081526020017f6765745465726d735f7465726d73436f6e7472616374506172616d65746572738152508483610c3d565b505050565b6000610ed46040805190810160405280600e81526020017f67657442656e6566696369617279000000000000000000000000000000000000815250836107bf565b600190049050919050565b60008060008a8a8a8a8a8a8a8a604051808973ffffffffffffffffffffffffffffffffffffffff1673ffffffffffffffffffffffffffffffffffffffff166c010000000000000000000000000281526014018873ffffffffffffffffffffffffffffffffffffffff1673ffffffffffffffffffffffffffffffffffffffff166c010000000000000000000000000281526014018773ffffffffffffffffffffffffffffffffffffffff1673ffffffffffffffffffffffffffffffffffffffff166c010000000000000000000000000281526014018673ffffffffffffffffffffffffffffffffffffffff1673ffffffffffffffffffffffffffffffffffffffff166c010000000000000000000000000281526014018581526020018473ffffffffffffffffffffffffffffffffffffffff1673ffffffffffffffffffffffffffffffffffffffff166c01000000000000000000000000028152601401836000191660001916815260200182815260200198505050505050505050604051809103902091506110a26040805190810160405280600681526020017f696e73657274000000000000000000000000000000000000000000000000000081525083611633565b6110e56040805190810160405280600681526020017f696e73657274000000000000000000000000000000000000000000000000000081525060006001026107bf565b90506110f1818b611445565b809250505098975050505050505050565b60006111436040805190810160405280601981526020017f67657449737375616e6365426c6f636b54696d657374616d7000000000000000815250836107bf565b600190049050919050565b60006111586119b4565b600080600093505b600a84101561143f5761117161176c565b84600a8110151561117e57fe5b602002015192506000835114151561143257600091505b6000836040518082805190602001908083835b6020831015156111cd57805182526020820191506020810190506020830392506111a8565b6001836020036101000a0380198251168184511680821785525050505050509050019150509081526020016040518091039020805490508210156113ba576000836040518082805190602001908083835b602083101515611243578051825260208201915060208101905060208303925061121e565b6001836020036101000a03801982511681845116808217855250505050505090500191505090815260200160405180910390208281548110151561128357fe5b90600052602060002090015490506002836040518082805190602001908083835b6020831015156112c957805182526020820191506020810190506020830392506112a4565b6001836020036101000a03801982511681845116808217855250505050505090500191505090815260200160405180910390206000826000191660001916815260200190815260200160002060006101000a81549060ff02191690556001836040518082805190602001908083835b60208310151561135d5780518252602082019150602081019050602083039250611338565b6001836020036101000a038019825116818451168082178552505050505050905001915050908152602001604051809103902060008260001916600019168152602001908152602001600020600090558180600101925050611195565b6000836040518082805190602001908083835b6020831015156113f257805182526020820191506020810190506020830392506113cd565b6001836020036101000a0380198251168184511680821785525050505050509050019150509081526020016040518091039020600061143191906119c8565b5b8380600101945050611160565b50505050565b61149e6040805190810160405280600e81526020017f67657442656e6566696369617279000000000000000000000000000000000000815250838373ffffffffffffffffffffffffffffffffffffffff16600102610c3d565b5050565b60006115436040805190810160405280601181526020017f6d6f6469667942656e656669636961727900000000000000000000000000000081525084846040518083600019166000191681526020018273ffffffffffffffffffffffffffffffffffffffff1673ffffffffffffffffffffffffffffffffffffffff166c01000000000000000000000000028152601401925050506040518091039020611597565b905092915050565b600061158c6040805190810160405280601081526020017f6765745465726d73436f6e747261637400000000000000000000000000000000815250836107bf565b600190049050919050565b60006002836040518082805190602001908083835b6020831015156115d157805182526020820191506020810190506020830392506115ac565b6001836020036101000a03801982511681845116808217855250505050505090500191505090815260200160405180910390206000836000191660001916815260200190815260200160002060009054906101000a900460ff16905092915050565b60016002836040518082805190602001908083835b60208310151561166d5780518252602082019150602081019050602083039250611648565b6001836020036101000a03801982511681845116808217855250505050505090500191505090815260200160405180910390206000836000191660001916815260200190815260200160002060006101000a81548160ff0219169083151502179055506000826040518082805190602001908083835b60208310151561170857805182526020820191506020810190506020830392506116e3565b6001836020036101000a0380198251168184511680821785525050505050509050019150509081526020016040518091039020805480600101828161174d9190611988565b9160005260206000209001600083909190915090600019169055505050565b6117746119e9565b610140604051908101604052806040805190810160405280600681526020017f696e73657274000000000000000000000000000000000000000000000000000081525081526020016040805190810160405280601181526020017f6d6f6469667942656e656669636961727900000000000000000000000000000081525081526020016040805190810160405280600e81526020017f67657442656e656669636961727900000000000000000000000000000000000081525081526020016040805190810160405280601681526020017f6765745465726d735f7465726d73436f6e74726163740000000000000000000081525081526020016040805190810160405280602081526020017f6765745465726d735f7465726d73436f6e7472616374506172616d657465727381525081526020016040805190810160405280601081526020017f6765745465726d73436f6e74726163740000000000000000000000000000000081525081526020016040805190810160405280601a81526020017f6765745465726d73436f6e7472616374506172616d657465727300000000000081525081526020016040805190810160405280601981526020017f67657449737375616e6365426c6f636b54696d657374616d70000000000000008152508152602001602060405190810160405280600081525081526020016020604051908101604052806000815250815250905090565b8154818355818115116119af578183600052602060002091820191016119ae9190611a18565b5b505050565b602060405190810160405280600081525090565b50805460008255906000526020600020908101906119e69190611a18565b50565b61014060405190810160405280600a905b611a02611a3d565b8152602001906001900390816119fa5790505090565b611a3a91905b80821115611a36576000816000905550600101611a1e565b5090565b90565b6020604051908101604052806000815250905600a165627a7a723058208e90306b7efc6feecfe05714f780b523f9df5864bdf1e30a5479a84145e3d36f0029",
  "source": "/*\n\n  Copyright 2017 Dharma Labs Inc.\n\n  Licensed under the Apache License, Version 2.0 (the \"License\");\n  you may not use this file except in compliance with the License.\n  You may obtain a copy of the License at\n\n    http://www.apache.org/licenses/LICENSE-2.0\n\n  Unless required by applicable law or agreed to in writing, software\n  distributed under the License is distributed on an \"AS IS\" BASIS,\n  WITHOUT WARRANTIES OR CONDITIONS OF ANY KIND, either express or implied.\n  See the License for the specific language governing permissions and\n  limitations under the License.\n\n*/\n\npragma solidity 0.4.18;\n\nimport \"./MockContract.sol\";\n\n\ncontract MockDebtRegistry is MockContract {\n    function insert(\n        address _version,\n        address _beneficiary,\n        address _debtor,\n        address _underwriter,\n        uint _underwriterRiskRating,\n        address _termsContract,\n        bytes32 _termsContractParameters,\n        uint _salt\n    )\n        public\n        returns (bytes32 _issuanceHash)\n    {\n        bytes32 argsSignature = keccak256(\n            _version,\n            _beneficiary,\n            _debtor,\n            _underwriter,\n            _underwriterRiskRating,\n            _termsContract,\n            _termsContractParameters,\n            _salt\n        );\n\n        functionCalledWithArgs(\"insert\", argsSignature);\n\n        bytes32 issuanceHash = getMockReturnValue(\"insert\", DEFAULT_SIGNATURE_ARGS);\n\n        mockGetBeneficiaryReturnValueFor(issuanceHash, _beneficiary);\n\n        return issuanceHash;\n    }\n\n    function modifyBeneficiary(bytes32 issuanceHash, address newBeneficiary)\n        public\n    {\n        functionCalledWithArgs(\"modifyBeneficiary\",\n            keccak256(issuanceHash, newBeneficiary));\n\n        mockGetBeneficiaryReturnValueFor(issuanceHash, newBeneficiary);\n    }\n\n    function getBeneficiary(bytes32 issuanceHash)\n        public\n        view\n        returns (address _mockBeneficiary)\n    {\n        return address(getMockReturnValue(\"getBeneficiary\", issuanceHash));\n    }\n\n    function mockInsertReturnValue(bytes32 issuanceHash) public {\n        mockReturnValue(\"insert\", DEFAULT_SIGNATURE_ARGS, issuanceHash);\n    }\n\n    function mockGetBeneficiaryReturnValueFor(bytes32 issuanceHash, address beneficiary)\n        public\n    {\n        mockReturnValue(\"getBeneficiary\", issuanceHash, bytes32(beneficiary));\n    }\n\n    function getTerms(bytes32 issuanceHash)\n        public\n        view\n        returns (address _termsContract, bytes32 _termsContractParameters)\n    {\n        return (\n            address(getMockReturnValue(\"getTerms_termsContract\", issuanceHash)),\n            getMockReturnValue(\"getTerms_termsContractParameters\", issuanceHash)\n        );\n    }\n\n    function mockGetTermsReturnValueFor(\n        bytes32 issuanceHash,\n        address termsContract,\n        bytes32 termsContractParameters\n    )\n        public\n    {\n        mockReturnValue(\"getTerms_termsContract\", issuanceHash, bytes32(termsContract));\n        mockReturnValue(\"getTerms_termsContractParameters\", issuanceHash, termsContractParameters);\n    }\n\n    function getTermsContract(bytes32 issuanceHash)\n        public\n        view\n        returns (address _termsContract)\n    {\n        return address(getMockReturnValue(\"getTermsContract\", issuanceHash));\n    }\n\n    function getIssuanceBlockTimestamp(bytes32 issuanceHash)\n        public\n        view\n        returns (uint timestamp)\n    {\n        return uint(getMockReturnValue(\"getIssuanceBlockTimestamp\", issuanceHash));\n    }\n\n    function mockGetIssuanceBlockTimestamp(\n        bytes32 issuanceHash,\n        uint timestamp\n    )\n        public\n    {\n        mockReturnValue(\"getIssuanceBlockTimestamp\", issuanceHash, bytes32(timestamp));\n    }\n\n    function getTermsContractParameters(bytes32 issuanceHash)\n        public\n        view\n        returns (bytes32)\n    {\n        return getMockReturnValue(\"getTermsContractParameters\", issuanceHash);\n    }\n\n    function mockGetTermsContractParameters(\n        bytes32 issuanceHash,\n        bytes32 params\n    )\n        public\n    {\n        mockReturnValue(\"getTermsContractParameters\", issuanceHash, params);\n    }\n\n    function mockGetTermsContractReturnValueFor(\n        bytes32 issuanceHash,\n        address termsContract\n    )\n        public\n    {\n        mockReturnValue(\"getTermsContract\", issuanceHash, bytes32(termsContract));\n    }\n\n    function wasInsertCalledWith(\n        address _version,\n        address _beneficiary,\n        address _debtor,\n        address _underwriter,\n        uint _underwriterRiskRating,\n        address _termsContract,\n        bytes32 _termsContractParameters,\n        uint _salt\n    )\n        public\n        view\n        returns (bool _wasCalled)\n    {\n        return wasFunctionCalledWithArgs(\"insert\", keccak256(\n            _version,\n            _beneficiary,\n            _debtor,\n            _underwriter,\n            _underwriterRiskRating,\n            _termsContract,\n            _termsContractParameters,\n            _salt\n        ));\n    }\n\n    function wasModifyBeneficiaryCalledWith(bytes32 issuanceHash, address newBeneficiary)\n        public\n        view\n        returns (bool _wasCalled)\n    {\n        return wasFunctionCalledWithArgs(\"modifyBeneficiary\",\n            keccak256(issuanceHash, newBeneficiary));\n    }\n\n    function getFunctionList()\n        internal\n        returns (string[10] functionNames)\n    {\n        return [\n            \"insert\",\n            \"modifyBeneficiary\",\n            \"getBeneficiary\",\n            \"getTerms_termsContract\",\n            \"getTerms_termsContractParameters\",\n            \"getTermsContract\",\n            \"getTermsContractParameters\",\n            \"getIssuanceBlockTimestamp\",\n            \"\",\n            \"\"\n        ];\n    }\n}\n",
  "sourcePath": "/Users/frostiq/source/dharma/charta/contracts/test/mocks/MockDebtRegsitry.sol",
  "compiler": {
    "name": "solc",
    "version": "0.4.18+commit.9cf6e910.Emscripten.clang"
  },
  "schemaVersion": "1.0.1",
  "updatedAt": "2018-03-28T11:32:36.748Z"
}