{
  "contractName": "MockTermsContract",
  "abi": [
    {
      "constant": false,
      "inputs": [
        {
          "name": "success",
          "type": "bool"
        }
      ],
      "name": "mockRegisterRepaymentReturnValue",
      "outputs": [],
      "payable": false,
      "stateMutability": "nonpayable",
      "type": "function"
    },
    {
      "constant": true,
      "inputs": [
        {
          "name": "functionName",
          "type": "string"
        },
        {
          "name": "argsSignature",
          "type": "bytes32"
        }
      ],
      "name": "getMockReturnValue",
      "outputs": [
        {
          "name": "_mockReturnValue",
          "type": "bytes32"
        }
      ],
      "payable": false,
      "stateMutability": "view",
      "type": "function"
    },
    {
      "constant": false,
      "inputs": [
        {
          "name": "agreementId",
          "type": "bytes32"
        },
        {
          "name": "payer",
          "type": "address"
        },
        {
          "name": "beneficiary",
          "type": "address"
        },
        {
          "name": "unitsOfRepayment",
          "type": "uint256"
        },
        {
          "name": "tokenAddress",
          "type": "address"
        }
      ],
      "name": "registerRepayment",
      "outputs": [
        {
          "name": "_success",
          "type": "bool"
        }
      ],
      "payable": false,
      "stateMutability": "nonpayable",
      "type": "function"
    },
    {
      "constant": false,
      "inputs": [
        {
          "name": "agreementId",
          "type": "bytes32"
        },
        {
          "name": "debtor",
          "type": "address"
        },
        {
          "name": "success",
          "type": "bool"
        }
      ],
      "name": "mockRegisterTermStartReturnValue",
      "outputs": [],
      "payable": false,
      "stateMutability": "nonpayable",
      "type": "function"
    },
    {
      "constant": true,
      "inputs": [
        {
          "name": "agreementId",
          "type": "bytes32"
        },
        {
          "name": "payer",
          "type": "address"
        },
        {
          "name": "beneficiary",
          "type": "address"
        },
        {
          "name": "unitsOfRepayment",
          "type": "uint256"
        },
        {
          "name": "tokenAddress",
          "type": "address"
        }
      ],
      "name": "wasRegisterRepaymentCalledWith",
      "outputs": [
        {
          "name": "wasCalled",
          "type": "bool"
        }
      ],
      "payable": false,
      "stateMutability": "view",
      "type": "function"
    },
    {
      "constant": false,
      "inputs": [
        {
          "name": "functionName",
          "type": "string"
        },
        {
          "name": "argsSignature",
          "type": "bytes32"
        },
        {
          "name": "returnValue",
          "type": "bytes32"
        }
      ],
      "name": "mockReturnValue",
      "outputs": [],
      "payable": false,
      "stateMutability": "nonpayable",
      "type": "function"
    },
    {
      "constant": false,
      "inputs": [
        {
          "name": "agreementId",
          "type": "bytes32"
        },
        {
          "name": "debtor",
          "type": "address"
        }
      ],
      "name": "registerTermStart",
      "outputs": [
        {
          "name": "_registered",
          "type": "bool"
        }
      ],
      "payable": false,
      "stateMutability": "nonpayable",
      "type": "function"
    },
    {
      "constant": true,
      "inputs": [
        {
          "name": "agreementId",
          "type": "bytes32"
        },
        {
          "name": "debtor",
          "type": "address"
        }
      ],
      "name": "wasRegisterTermStartCalledWith",
      "outputs": [
        {
          "name": "_wasCalled",
          "type": "bool"
        }
      ],
      "payable": false,
      "stateMutability": "view",
      "type": "function"
    },
    {
      "constant": false,
      "inputs": [],
      "name": "reset",
      "outputs": [],
      "payable": false,
      "stateMutability": "nonpayable",
      "type": "function"
    }
  ],
  "bytecode": "0x6060604052341561000f57600080fd5b6112b88061001e6000396000f300606060405260043610610099576000357c0100000000000000000000000000000000000000000000000000000000900463ffffffff16806304aa85fa1461009e57806313101858146100c35780635f0280ba1461014957806360a06861146101ee5780637f8601a11461023f57806380da20d4146102e4578063977a5e641461035b578063c45d83ef146103b9578063d826f88f14610417575b600080fd5b34156100a957600080fd5b6100c16004808035151590602001909190505061042c565b005b34156100ce57600080fd5b61012b600480803590602001908201803590602001908080601f0160208091040260200160405190810160405280939291908181526020018383808284378201915050505050509190803560001916906020019091905050610486565b60405180826000191660001916815260200191505060405180910390f35b341561015457600080fd5b6101d460048080356000191690602001909190803573ffffffffffffffffffffffffffffffffffffffff1690602001909190803573ffffffffffffffffffffffffffffffffffffffff1690602001909190803590602001909190803573ffffffffffffffffffffffffffffffffffffffff16906020019091905050610515565b604051808215151515815260200191505060405180910390f35b34156101f957600080fd5b61023d60048080356000191690602001909190803573ffffffffffffffffffffffffffffffffffffffff16906020019091908035151590602001909190505061069f565b005b341561024a57600080fd5b6102ca60048080356000191690602001909190803573ffffffffffffffffffffffffffffffffffffffff1690602001909190803573ffffffffffffffffffffffffffffffffffffffff1690602001909190803590602001909190803573ffffffffffffffffffffffffffffffffffffffff16906020019091905050610757565b604051808215151515815260200191505060405180910390f35b34156102ef57600080fd5b610359600480803590602001908201803590602001908080601f016020809104026020016040519081016040528093929190818152602001838380828437820191505050505050919080356000191690602001909190803560001916906020019091905050610891565b005b341561036657600080fd5b61039f60048080356000191690602001909190803573ffffffffffffffffffffffffffffffffffffffff169060200190919050506109bb565b604051808215151515815260200191505060405180910390f35b34156103c457600080fd5b6103fd60048080356000191690602001909190803573ffffffffffffffffffffffffffffffffffffffff16906020019091905050610b10565b604051808215151515815260200191505060405180910390f35b341561042257600080fd5b61042a610bb9565b005b6104836040805190810160405280601181526020017f726567697374657252657061796d656e7400000000000000000000000000000081525060006001028361047957600060010261047e565b600180025b610891565b50565b60006001836040518082805190602001908083835b6020831015156104c0578051825260208201915060208101905060208303925061049b565b6001836020036101000a03801982511681845116808217855250505050505090500191505090815260200160405180910390206000836000191660001916815260200190815260200160002054905092915050565b60006106446040805190810160405280601181526020017f726567697374657252657061796d656e7400000000000000000000000000000081525087878787876040518086600019166000191681526020018573ffffffffffffffffffffffffffffffffffffffff1673ffffffffffffffffffffffffffffffffffffffff166c010000000000000000000000000281526014018473ffffffffffffffffffffffffffffffffffffffff1673ffffffffffffffffffffffffffffffffffffffff166c010000000000000000000000000281526014018381526020018273ffffffffffffffffffffffffffffffffffffffff1673ffffffffffffffffffffffffffffffffffffffff166c01000000000000000000000000028152601401955050505050506040518091039020610eb0565b600180026000191661068f6040805190810160405280601181526020017f726567697374657252657061796d656e740000000000000000000000000000008152506000600102610486565b6000191614905095945050505050565b6107526040805190810160405280601181526020017f72656769737465725465726d537461727400000000000000000000000000000081525084846040518083600019166000191681526020018273ffffffffffffffffffffffffffffffffffffffff1673ffffffffffffffffffffffffffffffffffffffff166c010000000000000000000000000281526014019250505060405180910390208361074857600060010261074d565b600180025b610891565b505050565b60006108866040805190810160405280601181526020017f726567697374657252657061796d656e7400000000000000000000000000000081525087878787876040518086600019166000191681526020018573ffffffffffffffffffffffffffffffffffffffff1673ffffffffffffffffffffffffffffffffffffffff166c010000000000000000000000000281526014018473ffffffffffffffffffffffffffffffffffffffff1673ffffffffffffffffffffffffffffffffffffffff166c010000000000000000000000000281526014018381526020018273ffffffffffffffffffffffffffffffffffffffff1673ffffffffffffffffffffffffffffffffffffffff166c01000000000000000000000000028152601401955050505050506040518091039020610fe9565b905095945050505050565b6000836040518082805190602001908083835b6020831015156108c957805182526020820191506020810190506020830392506108a4565b6001836020036101000a0380198251168184511680821785525050505050509050019150509081526020016040518091039020805480600101828161090e91906111c3565b916000526020600020900160008490919091509060001916905550806001846040518082805190602001908083835b602083101515610962578051825260208201915060208101905060208303925061093d565b6001836020036101000a0380198251168184511680821785525050505050509050019150509081526020016040518091039020600084600019166000191681526020019081526020016000208160001916905550505050565b6000610a5c6040805190810160405280601181526020017f72656769737465725465726d537461727400000000000000000000000000000081525084846040518083600019166000191681526020018273ffffffffffffffffffffffffffffffffffffffff1673ffffffffffffffffffffffffffffffffffffffff166c01000000000000000000000000028152601401925050506040518091039020610eb0565b6001800260001916610b036040805190810160405280601181526020017f72656769737465725465726d537461727400000000000000000000000000000081525085856040518083600019166000191681526020018273ffffffffffffffffffffffffffffffffffffffff1673ffffffffffffffffffffffffffffffffffffffff166c01000000000000000000000000028152601401925050506040518091039020610486565b6000191614905092915050565b6000610bb16040805190810160405280601181526020017f72656769737465725465726d537461727400000000000000000000000000000081525084846040518083600019166000191681526020018273ffffffffffffffffffffffffffffffffffffffff1673ffffffffffffffffffffffffffffffffffffffff166c01000000000000000000000000028152601401925050506040518091039020610fe9565b905092915050565b6000610bc36111ef565b600080600093505b600a841015610eaa57610bdc611085565b84600a81101515610be957fe5b6020020151925060008351141515610e9d57600091505b6000836040518082805190602001908083835b602083101515610c385780518252602082019150602081019050602083039250610c13565b6001836020036101000a038019825116818451168082178552505050505050905001915050908152602001604051809103902080549050821015610e25576000836040518082805190602001908083835b602083101515610cae5780518252602082019150602081019050602083039250610c89565b6001836020036101000a038019825116818451168082178552505050505050905001915050908152602001604051809103902082815481101515610cee57fe5b90600052602060002090015490506002836040518082805190602001908083835b602083101515610d345780518252602082019150602081019050602083039250610d0f565b6001836020036101000a03801982511681845116808217855250505050505090500191505090815260200160405180910390206000826000191660001916815260200190815260200160002060006101000a81549060ff02191690556001836040518082805190602001908083835b602083101515610dc85780518252602082019150602081019050602083039250610da3565b6001836020036101000a038019825116818451168082178552505050505050905001915050908152602001604051809103902060008260001916600019168152602001908152602001600020600090558180600101925050610c00565b6000836040518082805190602001908083835b602083101515610e5d5780518252602082019150602081019050602083039250610e38565b6001836020036101000a03801982511681845116808217855250505050505090500191505090815260200160405180910390206000610e9c9190611203565b5b8380600101945050610bcb565b50505050565b60016002836040518082805190602001908083835b602083101515610eea5780518252602082019150602081019050602083039250610ec5565b6001836020036101000a03801982511681845116808217855250505050505090500191505090815260200160405180910390206000836000191660001916815260200190815260200160002060006101000a81548160ff0219169083151502179055506000826040518082805190602001908083835b602083101515610f855780518252602082019150602081019050602083039250610f60565b6001836020036101000a03801982511681845116808217855250505050505090500191505090815260200160405180910390208054806001018281610fca91906111c3565b9160005260206000209001600083909190915090600019169055505050565b60006002836040518082805190602001908083835b6020831015156110235780518252602082019150602081019050602083039250610ffe565b6001836020036101000a03801982511681845116808217855250505050505090500191505090815260200160405180910390206000836000191660001916815260200190815260200160002060009054906101000a900460ff16905092915050565b61108d611224565b610140604051908101604052806040805190810160405280601181526020017f726567697374657252657061796d656e7400000000000000000000000000000081525081526020016040805190810160405280601181526020017f72656769737465725465726d53746172740000000000000000000000000000008152508152602001602060405190810160405280600081525081526020016020604051908101604052806000815250815260200160206040519081016040528060008152508152602001602060405190810160405280600081525081526020016020604051908101604052806000815250815260200160206040519081016040528060008152508152602001602060405190810160405280600081525081526020016020604051908101604052806000815250815250905090565b8154818355818115116111ea578183600052602060002091820191016111e99190611253565b5b505050565b602060405190810160405280600081525090565b50805460008255906000526020600020908101906112219190611253565b50565b61014060405190810160405280600a905b61123d611278565b8152602001906001900390816112355790505090565b61127591905b80821115611271576000816000905550600101611259565b5090565b90565b6020604051908101604052806000815250905600a165627a7a72305820cf359ec909092c1128d8f498f9ff68b7451db9c7cceb6a0d1b69d82d5f2dbbc20029",
  "source": "/*\n\n  Copyright 2017 Dharma Labs Inc.\n\n  Licensed under the Apache License, Version 2.0 (the \"License\");\n  you may not use this file except in compliance with the License.\n  You may obtain a copy of the License at\n\n    http://www.apache.org/licenses/LICENSE-2.0\n\n  Unless required by applicable law or agreed to in writing, software\n  distributed under the License is distributed on an \"AS IS\" BASIS,\n  WITHOUT WARRANTIES OR CONDITIONS OF ANY KIND, either express or implied.\n  See the License for the specific language governing permissions and\n  limitations under the License.\n\n*/\n\npragma solidity 0.4.18;\n\nimport \"./MockContract.sol\";\n\n\ncontract MockTermsContract is MockContract {\n    function registerRepayment(\n        bytes32 agreementId,\n        address payer,\n        address beneficiary,\n        uint unitsOfRepayment,\n        address tokenAddress\n    )\n        public\n        returns (bool _success)\n    {\n        functionCalledWithArgs(\"registerRepayment\", keccak256(\n            agreementId,\n            payer,\n            beneficiary,\n            unitsOfRepayment,\n            tokenAddress\n        ));\n\n        return getMockReturnValue(\"registerRepayment\", DEFAULT_SIGNATURE_ARGS) == bytes32(1);\n    }\n\n    function mockRegisterRepaymentReturnValue(bool success)\n        public\n    {\n        mockReturnValue(\"registerRepayment\", DEFAULT_SIGNATURE_ARGS, success ? bytes32(1) : bytes32(0));\n    }\n\n    function wasRegisterRepaymentCalledWith(\n        bytes32 agreementId,\n        address payer,\n        address beneficiary,\n        uint unitsOfRepayment,\n        address tokenAddress\n    )\n        public\n        view\n        returns (bool wasCalled)\n    {\n        return wasFunctionCalledWithArgs(\"registerRepayment\", keccak256(\n            agreementId,\n            payer,\n            beneficiary,\n            unitsOfRepayment,\n            tokenAddress\n        ));\n    }\n\n    function registerTermStart(\n        bytes32 agreementId,\n        address debtor\n    )\n        public\n        returns (bool _registered)\n    {\n        functionCalledWithArgs(\"registerTermStart\", keccak256(agreementId, debtor));\n\n        return getMockReturnValue(\n            \"registerTermStart\",\n            keccak256(agreementId, debtor)\n        ) == bytes32(1);\n    }\n\n    function mockRegisterTermStartReturnValue(bytes32 agreementId, address debtor, bool success)\n        public\n    {\n        mockReturnValue(\n            \"registerTermStart\",\n            keccak256(agreementId, debtor),\n            success ? bytes32(1) : bytes32(0)\n        );\n    }\n\n    function wasRegisterTermStartCalledWith(bytes32 agreementId, address debtor)\n        public\n        view\n        returns (bool _wasCalled)\n    {\n        return wasFunctionCalledWithArgs(\"registerTermStart\", keccak256(agreementId, debtor));\n    }\n\n    function getFunctionList()\n        internal\n        returns (string[10] functionNames)\n    {\n        return [\"registerRepayment\", \"registerTermStart\", \"\", \"\", \"\", \"\", \"\", \"\", \"\", \"\"];\n    }\n}\n",
  "sourcePath": "/Users/frostiq/source/dharma/charta/contracts/test/mocks/MockTermsContract.sol",
  "compiler": {
    "name": "solc",
    "version": "0.4.18+commit.9cf6e910.Emscripten.clang"
  },
  "schemaVersion": "1.0.1",
  "updatedAt": "2018-03-28T11:32:36.760Z"
}